:020000041000EA
:1000000000B5324B212058609868022188439860DF
:10001000D860186158612E4B002199600421596104
:100020000121F02299502B49196001219960352056
:1000300000F044F80222904214D00621196600F024
:1000400034F8196E01211966002018661A6600F04E
:100050002CF8196E196E196E052000F02FF8012189
:100060000842F9D1002199601B49196000215960AB
:100070001A491B48016001219960EB211966A021F2
:10008000196600F012F800219960164914480160C1
:100090000121996001BC002800D000471248134993
:1000A000086003C880F30888084703B5996A0420EC
:1000B0000142FBD001200142F8D103BD02B5186610
:1000C0001866FFF7F2FF186E186E02BD00000240BE
:1000D000000000180000070000035F00212200005C
:1000E000F4000018222000A00001001008ED00E03C
:1000F000000000000000000000000000070B8FD58A
:10010000B82B0020994F0010DB8E0010854F001097
:1001100000000000000000000000000000000000DF
:1001200000000000000000000000000075500010FA
:100130000000000000000000055000105166001093
:10014000E5510010E5510010E5510010E551001097
:10015000E5510010E5510010E5510010E551001087
:10016000E5510010E5510010E5510010E551001077
:10017000E5510010E5510010E5510010E551001067
:10018000E5510010E5510010E5510010E551001057
:10019000E5510010E5510010E5510010E551001047
:0801A000E5510010E5510010CB
:1001A80002B4714649084900095649008E4402BC08
:1001B8007047C04602B4714649084900095C4900C5
:1001C8008E4402BC7047C04603B4714649084000DB
:1001D8004900095A49008E4403BC7047002934D0AD
:1001E8000123002210B488422CD301242407A14201
:1001F80004D2814202D209011B01F8E7E400A142BE
:1002080004D2814202D249005B00F8E7884201D358
:10021800401A1A434C08A04202D3001B5C08224330
:100228008C08A04202D3001B9C082243CC08A042A1
:1002380002D3001BDC082243002803D01B0901D08D
:100248000909E3E7100010BC704701B5002000F071
:100258005FF802BD0029F8D003B5FFF7C1FF0EBC57
:100268004243891A1847C046002941D010B40400F7
:100278004C40A44601230022002900D54942002809
:1002880000D5404288422CD301242407A14204D23D
:10029800814202D209011B01F8E7E400A14204D21D
:1002A800814202D249005B00F8E7884201D3401A34
:1002B8001A434C08A04202D3001B5C0822438C0856
:1002C800A04202D3001B9C082243CC08A04202D3C0
:1002D800001BDC082243002803D01B0901D00909B0
:1002E800E3E710006446002C00D5404210BC70477C
:1002F80001B5002000F00CF802BDC0460029F7D077
:1003080003B5FFF7B3FF0EBC4243891A1847C0462E
:100318007047C046D0400B00D1409C46203AD3409D
:10032800184352426346934018437047844610006E
:1003380062468C461900634600E0C0461FB501F0CE
:1003480061FA002801D40021C8421FBD10B501F090
:10035800A1F94042013010BD10B501F053FA002850
:1003680001DB002010BD012010BDC04610B501F012
:1003780049FA002801DD002010BD012010BDC0464B
:1003880010B501F0C9F9002801DC002010BD0120DA
:1003980010BDC04610B501F0BFF9002801DA0020F1
:1003A80010BD012010BDC0461C2101231B0498422A
:1003B80001D3000C10391B0A984201D3000A0839EE
:1003C8001B09984201D30009043902A2105C4018A5
:1003D8007047C04604030202010101010000000049
:1003E80000000000414208401C2101231B049842E0
:1003F80001D3000C10391B0A984201D3000A0839AE
:100408001B09984201D30009043902A2105C401A62
:100418007047C0461B1C1D1D1E1E1E1E1F1F1F1FB2
:100428001F1F1F1F002B11D1002A0FD1002900D137
:10043800002802D00021C943080007B4024802A1DD
:100448004018029003BDC046C9FEFFFF03B46846CA
:1004580001B5029802F067F8019B9E4602B00CBCF9
:100468007047C0464A02F8B543024400C50F500A17
:1004780084464800240E000E5F0AC90F9B099209A2
:10048800261A8D4200D09EE0002E42DD8021C9044C
:1004980000281ED1002A0AD0661E012C05D19B18FF
:1004A80001340B4246D1013C01E0FF2C14D15A071C
:1004B80004D00F221A40042A00D004335A0100D471
:1004C8002EE101340026FF2C19D09D4EDB081E407A
:1004D80015E0FF2CEBD00A431B2E01DD0133E6E7C4
:1004E8002020801B11008240F140501E82410A43A7
:1004F8009B185A01DBD501340026FF2C1AD1FF23A3
:10050800E005DB057602760A18403043ED072843FC
:10051800F8BD002E2ED08026011BF604002C14D125
:10052800002B00D1F3E04C1E01290AD19B180224AC
:100538003342B8D0012283491A405B080B40134369
:10054800B5E7FF2906D11300AEE0FF2800D1E0E0AF
:100558000C0033431B2C02DD531C0400A7E71900D1
:100568002026E140341BA3405C1EA3410B4304003A
:100578009B18BEE7FE20611C01421ED1002C0DD144
:10058800002B00D1C7E0002A00D190E79B185A0140
:1005980000D48CE76C4A13400C0088E7002BD2D0BB
:1005A800FF24002A00D182E78023DB039F4202D385
:1005B8009C4500D26746FB0076E00C00FF299ED0E0
:1005C8009B185B0873E7002E25DD00281CD1002A44
:1005D80000D16CE7661E012C06D19B1A5A0100D483
:1005E80065E79B019E0975E0FF2C00D15FE70121BB
:1005F8001B2E07DC2020801B11008240F140501E7A
:10060800824111435B1AE9E7FF2C00D14FE78021B3
:10061800C9040A43EBE7002E25D0051B002C0DD199
:10062800002B08D06E1E012D03D10D00D31A013402
:10063800D4E7FF2D08D113002C0021E0FF286CD04F
:1006480080242E00E404234301241B2E07DC2025EC
:10065800AD1B1C00AB40F4405D1EAB411C43131B9B
:100668000D000400BAE7FE26601C30422DD1002C94
:1006780014D1002B06D125002600131E00D13EE719
:100688000D0014E7002A00D111E79E1AD31A700151
:10069800F6D4331E00D00AE7350030E7002B05D129
:1006A800002A49D013000D00FF2400E7FF24002A88
:1006B80000D1FCE68023DB039F4200D27BE79C4508
:1006C80000D378E767460D0075E79E1A700115D5C7
:1006D8000D00D61A3000FFF767FE33000538834057
:1006E800844210DC2022001B0130121A19009340AA
:1006F800C1405A1E934100240B43D8E6002EE9D18D
:1007080035003400FBE6104A241A1340CFE61300E4
:1007180042E7130021E71300C9E613000400AFE71E
:10072800DE08FF2C00D0EAE6002E00D1E7E68023A1
:10073800DB03FF241E43E2E680261500F603F6E7F6
:10074800FFFF7F1FFFFFFF7DFFFFFFFBF0B5C30F1C
:1007580085B0440245000F1C640A2D0E03930293D2
:100768000AD0FF2D3BD08023E400DB041C43002388
:100778007F3D019500930EE0012301940093002C26
:1007880009D02000FFF710FE431F9C4076235B42F0
:100798001B1A019300957D027E006D0A360EFF0F2D
:1007A800002E23D0FF2E2ED08023ED00DB041D4326
:1007B80033007F3B002201980399C31A00987940BF
:1007C8008000104301380E2823D8FFF7F3FC4D9919
:1007D80073999299734D4D9273616161530002232D
:1007E80001950093002CD6D00133C3E72B000122DA
:1007F800002DE0D02800FFF7D7FD431F9D4076234A
:100808005B421B1AD6E733000222002DD3D00132F7
:10081800D1E764016D01AC4228D31A200122641B80
:100828000126270052006400002F01DBA54201D8F1
:10083800641B324301380028F3D1601E84411443FD
:1008480018007F30002838DD620704D00F222240CC
:10085800042A00D00434220103D5803318002B4A1F
:100868001440E508FE281DDD00250FE01B200022AE
:10087800013BD5E78023DB031C4203D01D4201D195
:100888002C00029780250299ED032543FF2009E0FB
:100898000399009A022AE7D0032A2FD000252800BE
:1008A800012ACDD16D026D0AC0052843C907084346
:1008B80005B0F0BD2C003900ECE701220025121A22
:1008C80028001B2AEEDC9E3325009C40D540631E81
:1008D8009C4125436B0704D00F232B40042B00D0E9
:1008E800043580232800DB0418401D420BD1ED0895
:1008F800D8E780240023E4030293C3E70291C1E709
:1009080000252800CEE700250120CBE7FFFFFFF7F1
:10091800F0B5C30F85B04702440002917F0A240E48
:1009280003930AD0FF2C71D080227F3C260000233D
:10093800FF00D204174301930CE001233E1E0193EC
:1009480008D03800FFF730FD7626431F9F407642D7
:10095800361A0194029B5C025D00DB0F640A2D0EBF
:1009680002935AD0FF2D64D080232800E400DB04D2
:100978001C437F3800230299039A4A408119019841
:100988008C46850001311D430A2D00DD78E0022DDB
:1009980055DC013D012D63D9250CA4B226003B0C82
:1009A800B8B246435C4368436B4300191F00330CDD
:1009B8001B189C4202D9802040023F181804B6B286
:1009C8008619B401601E84411B0CB60EDB19344332
:1009D8009B011C431B0168D5012360081C4004438C
:1009E80008007F30002862DD630704D00F2323400E
:1009F800042B00D00434230103D5803108003E4B7A
:100A08001C40E508FE2833DD00254CE002232600C3
:100A18000193002F9ED001338DE720000123002C85
:100A2800A9D0FFF7C1FC431F9C4076235B42181AEC
:100A3800A0E728000223002C9DD001339BE701206A
:100A4800A840A6250600ED002E4028421DD190257D
:100A5800AD00284247D1B93DFF3D28429CD0029ABB
:100A6800022BD1D0032B42D000252800012BB7D16F
:100A78006D026D0AC0052843D207104305B0F0BDCA
:100A8800039A0F2D04D00B2DE9D03C00019BE7E71A
:100A98008023DB031F4203D01C4201D12700029AA6
:100AA8008025ED033D43FF20E2E7614698E70123F7
:100AB80000251B1A28001B2BDADC9E3125008C40F0
:100AC800DD40631E9C4125436B0704D00F232B4058
:100AD800042B00D0043580232800DB0418401D4275
:100AE80007D1ED08C4E780273200FF03D8E72700C5
:100AF800D6E700250120BBE7FFFFFFF741024300CF
:100B0800C20F490A00201B0E7E2B03DD9D2B02DD40
:100B1800084BD0187047802000040843952B05DD4A
:100B2800963B9840002AF5D04042F3E79621CB1A2D
:100B3800D840F7E7FFFFFF7F002370B50400984215
:100B480009D0FFF731FC9E231B1A962B08DC0828D6
:100B580029D0083884406402D805640A204370BD4F
:100B6800992B1BDD020021001B3291400A00511E07
:100B78008A410521091ACC40144322000B4D2A4012
:100B8800610704D00F212140042900D0043251010B
:100B980002D59F232A401B1AD408DCE7421F0528E8
:100BA800EBD09440E9E79623D5E7C046FFFFFFFB6B
:100BB800F0B587B004920593CB0F0193059B0D0305
:100BC8004C006D0A410F5F0029431D037B0D029302
:100BD800059B6D0ADB0F0393049B049A5B0F2B4361
:100BE800019E029D039F640DC000D200651BBE429A
:100BF80000D02CE1BB4EB446002D00DC70E0029E14
:100C0800002E1ED11E00164300D19BE26E1E012D40
:100C180013D1821882428041C91840420918012420
:100C280010000B0200D472E00224AF4B42080B40C4
:100C3800012101400A43D80706E165451CD1A94CAA
:100C480065E0644563D0382D47DC8026360433439D
:100C58002E001F2E2FDC20251F00AD1BAF40029554
:100C68003D001700F7402F43029DF340AA40551E50
:100C7800AA411D00174303E00127029D382EE8DD35
:100C88003F188742804169184042091838000B0212
:100C98003DD5002501342F006445C6D1934B24056A
:100CA8001C403B031B0B1C43019B2800DB071C4318
:100CB800210007B0F0BD35001F00203DEF403D008A
:100CC8000027202E03D04037BF1BBB401F0017430F
:100CD8007B1E9F412F430025D2E700250127CFE740
:100CE800002D6FD0029D2E1B002C30D10D00054326
:100CF80000D121E2751E012E24D180189042924124
:100D0800C9185242891801340B0200D58CE74307F1
:100D180009D00F230340042B05D0031D83428041D3
:100D28004042091818006F4B0A0200D410E200254F
:100D380001342F009C42B1D06B4BC0080B405D07BB
:100D48000543F2E166451DD11900100077E7029CC2
:100D58006445F9D0382E32DC802435002404214340
:100D68001F2D1ADC20240E00671BBE40340006002D
:100D7800B840EE4034430600E940701E86412643E1
:100D88000C0002E00126382DEADDB01890429241AD
:100D9800E4185242A118029C79E72C000E00203C6E
:100DA800E64034000026202D03D04036761BB140A3
:100DB8000E000643711E8E4126430024E5E70024F9
:100DC8000126E2E74A4F661C3E4230D10D0005433A
:100DD800002C12D1002D00D1B1E11D00154396D091
:100DE800821882428041C9184042091810000B023B
:100DF8008DD53D4B1940340089E7002DA4D01D0046
:100E08006446154383D080254C07C008C9082D03C4
:100E18002043294206D0DC082C4203D12100D00807
:100E28005B071843CB00410F1943C00007E73400A4
:100E38002F00664500D131E7821882428041CB18E5
:100E480040421B18D8075208104359085FE7002D85
:100E580065DD029E002E25D11E00164300D171E1EA
:100E68006E1E012D0ED1821A90428041C91A40424D
:100E7800091A012410000B0200D448E749020600B1
:100E88004D0A07E1174FBD4200D1D8E60125029F60
:100E9800382E11DD451BA8428041C91B4042091A62
:100EA8002800E8E70F4EB44200D130E7382D33DC94
:100EB8008026360433432E001F2E1BDC2027BD1B43
:100EC80002951D00029FF340BD40AC4615006746E1
:100ED800F5403D43029FBA40571EBA411F001543D3
:100EE800D8E7C046FF070000FFFF7FFF0000F07F44
:100EF800FE07000035001F00203DEF403D000027A1
:100F0800202E03D04037BE1BB3401F0017437B1E63
:100F18009F413D430027BDE700270125BAE7002D83
:100F280059D0029D2E1B002C16D10D0005430FD061
:100F3800751E012E09D1101A82429241591A039B3B
:100F48005242891A0193013495E78E4FBE4221D14E
:100F580019001000340050E08A4C029DA54200D1CF
:100F6800F2E0382E34DC80243500240421431F2D80
:100F78001DDC20260C00761BB440A4460400B040BB
:100F8800EC406746461EB041E9403C430443260016
:100F98000C0002E00126382DE9DD901B82429241C7
:100FA8001C1B039B5242A11A0193029C63E72C006D
:100FB8000E00203CE6400024202D03D04034641B62
:100FC800A1400C000443611E8C4126430024E4E741
:100FD80000240126E1E76C4E651C35424AD10D001C
:100FE8001F0005431743002C23D1002D08D13D1EB7
:100FF800019700D152E619001000039B019386E681
:10100800002F00D183E6861AB042BF41CD1A7F4235
:10101800ED1B2F0206D5101A82429241591A5242EC
:10102800891AEAE737002F4300D1A5E029003000EC
:101038006DE6002D07D1002F00D194E01900039B25
:1010480010000193FBE5002F00D1F8E580254C073F
:10105800C008C9082D032043294200D1E2E6DC0874
:101068002C4200D0DEE65B07D0081843039B210022
:101078000193D7E6861AB042BF41CD1A7F42ED1BD5
:101088002F0228D5161AB24292415B1A52429D1A73
:10109800039B0193002D25D02800FFF785F9030055
:1010A800083B20223100D21A9D40D1402943350007
:1010B8009D409C423BDC1A1B0132202308009B1AEE
:1010C8002C009D409840D4406B1E9D41D140204348
:1010D800284300241BE637002F43DBD13D003C00AA
:1010E8000197DBE53000FFF75FF9030018331F2B8A
:1010F800D7DD3100083881409C4212DC1B1B5A1C8A
:101108001F2ADADD0C001F3BDC402800202A03D010
:1011180040239B1A99400800431E98410021204310
:10112800D7E7E41A194B0B405D07DF08B6E5E41A68
:10113800164B28001940EAE5190010005BE6190073
:101148001000E4E52C00E2E519001000029C54E7C9
:101158004A07C70817433D00C9089C420FD10D43F1
:1011680004D12F009AE58021019709033D008027CB
:101178003F03044C0F4391E53D0001978EE50F00B6
:101188008CE5C046FF070000FE070000FFFF7FFF59
:10119800F0B589B0009201930D03CA0F4B00060009
:1011A80004002D0B5B0D0692059244D05B4A9342D6
:1011B8006AD0420FED001543802212042A4302929E
:1011C800574AC4009F180026019B019A1D03D20F9D
:1011D8005B0000982D0B5B0D079265D04F4A934238
:1011E80000D188E0ED004E49420F2A4380255B1864
:1011F8009C462D041543C2000021079B06985840C1
:1012080063460490B0000843FB1A013803930E2884
:1012180000D989E0FEF7D8FF7E002802D401280211
:101228001E022802D4017E007E001E02D401C701DE
:10123800C701C701B5012B00034302932CD0002D31
:1012480015D02800FFF7B0F8010003000B391D2264
:10125800521A31001800D140083885400A002A4344
:101268003500854002922F4F2C00FF1AABE7FFF79D
:101278009BF801000300153120331C29E7DD3200FB
:10128800083882400292EEE702002A43029207D011
:101298001F000326029597E7029C0126270093E783
:1012A8001F000226029C8FE7009A2A432AD0002DAD
:1012B80015D02800FFF778F8010002000B391D232C
:1012C80010005B1A009908388540D9402943009DD1
:1012D8008540144B9B1A9C462A000D008CE7FFF7AB
:1012E80063F801000200153120321C29E7DD00995E
:1012F80008388140EDE7009A2A4307D002009C464F
:1013080003217AE715009446012176E715009C46EB
:10131800022172E700231C00004A22E1FF070000B7
:1013280001FCFFFF0DFCFFFF029B9D4204D300D090
:1013380022E1A24200D91FE1029BE607D907630810
:1013480019430C00029B5B08029313022D02170E2F
:1013580000932B0C2F4307930799BBB20298059370
:10136800FEF778FFBBB243430A04210C0500114382
:101378008B4207D9C919013D8F4203D88B4201D945
:10138800851EC919C81A0799FEF764FFBAB2424305
:101398000904A4B203000C43A24207D9E419013B93
:1013A800A74203D8A24201D9831EE4192D041D4384
:1013B800A41A009B009A1B0C12040593120CABB2E2
:1013C80006925A4306980292059A290C48435343B9
:1013D8005143029A1B18120C94466344984202D94E
:1013E800802252028918029A180C12041B04120C4B
:1013F80040189A18844203D302951ED196421CD2F3
:101408006B1E0293009BF6189E429B415B42DB19C0
:10141800E418A74203D310D1009BB3420DD8A042D1
:1014280002D80AD1B24208D9AB1E0293009BF61823
:101438009E429B415B42DB19E418B51AAE42B641A5
:10144800201A7642801B874200D1BEE00799FEF73A
:1014580001FFBBB243430A04290C040011438B4229
:1014680007D9C919013C8F4203D88B4201D9841E80
:10147800C919C81A0799FEF7EDFEBBB24343090420
:10148800ADB202000D43AB4207D9ED19013AAF42A4
:1014980003D8AB4201D9821EED19ED1A2304059E2B
:1014A8001343069906981C0C9AB251436043724341
:1014B800744312180E0CB218904202D980204002D0
:1014C8002418100C09041204090C0019511885423B
:1014D80004D31C00854219D1002919D07D195C1E3E
:1014E800BD420ED3854203D310D1009A8A420AD254
:1014F8009C1E009B5A009A429B415B42DB19ED18E7
:101508000092854202D1009B994201D001231C43DD
:10151800039B5B4A9A18002A5ADD63070BD00F23F6
:101528002340042B07D0231DA342A44102996442FF
:1015380009191C000291029BDB0108D5514B029A44
:101548001A408023DB009C460292039A62444E4B69
:101558009A4200DD8CE0029BE4085B071C43029B77
:10156800DB081B0312051B0B1343049A2000D20748
:101578001343190009B0F0BD039B0026013B0393F8
:10158800E3E6802302991B03194205D01D4203D1CB
:101598001400079B029505938023029A1B031343AB
:1015A800059A0492B8E63100069B049302295FD09D
:1015B800032956D00129ABD1002423002200D0E70B
:1015C800079B140002950493F0E7012464429FE707
:1015D8000121891A3829EFDC1F2926DC2B4A039BB5
:1015E8009446634420009C40029AC8409A402300D5
:1015F8000243581E83411A43029B1400CB406207E2
:1016080009D00F222240042A05D0221DA242A4415B
:1016180064421B19140080211A0009040A400B4275
:1016280029D1E1085C070C439AE71F235B429B1A08
:10163800029ADA400023202906D01549039B8C46DC
:101648000299634499400B001C43631E9C4100238C
:101658001443D4E700231C00059380231B03029343
:101668009AE7049B059397E700231C001A0078E784
:101678000024230050E6002301221C0071E7C04625
:10168800FF030000FFFFFFFEFE0700001E0400002E
:101698003E040000F0B50D0087B0009201930400ED
:1016A80004900198EB0F4600C70F1A48039384462D
:1016B800009B09030593019B6A001B030120090B8A
:1016C800520D1B0B760D624503D066450DD107B050
:1016D800F0BD9642FBD1009A0B4313432343F6D146
:1016E800039BD81B431E9841F1E70120B242EED17B
:1016F8009942ECD1049B059EB342E8D1039BBB42BF
:1017080006D0002AE3D121434B1E99410800DEE7A9
:101718000020DCE7FF070000F0B587B000900191DA
:101728001D00009B14000493019B29031A03130B4B
:10173800334A03939446019B68005F007B0D029334
:10174800029A019B0594DB0F090B400DEE0F6245D1
:1017580012D1009A039F17434FD1029A904204D0A6
:101768000120002B06D0023804E02143081E44D192
:10177800B342F5D107B0F0BD604511D121433CD14A
:10178800029A002A04D0B342EAD1181EF2D105E029
:10179800009A03991143F6D1301EEBD101202DE0B8
:1017A800029A002A17D00028DAD0B342D8D1029A78
:1017B8008242D5DC029A8242E7DB039A8A42CFD87A
:1017C800E3D1049A05998A42CAD8049A0599002057
:1017D8008A42CFD2D9E7009F039A1743002802D044
:1017E800002FD9D0CFE70C4304D0002FD4D0B34278
:1017F800E3D0B5E7002FBDD0B2E702204042B9E7F9
:10180800FF070000F0B587B0009001911D00009B14
:1018180014000493019B68001A03130B344A0393C2
:101828009446019B05945F007B0D0293019B029AED
:10183800D90F2B031B0B400DEE0F624513D1009AF5
:10184800039F174352D1029A904204D001200029E5
:1018580007D0023805E00220234302D11800B14224
:10186800F4D107B0F0BD604513D102202343F8D16D
:10187800029B002B04D0B142E8D1081EF1D105E04B
:10188800009B039A1A43F6D1301EEAD10120404248
:10189800E7E7029A002A17D00028D7D0B142D5D15D
:1018A800029A8242D2DC029A8242E6DB039A9A4288
:1018B800CCD8E2D1049B059A9342C7D8049B059AD9
:1018C80000209342CDD2D8E7009F039A17430028FF
:1018D80002D0002FD8D0CEE71C4304D0002FD3D09D
:1018E800B142E3D0B2E7002FBBD0AFE70220B8E7A0
:1018F800FF070000F0B58BB0009201930D034B0079
:10190800CA0F06002D0B5B0D059200D114E1CF4ADA
:10191800934200D138E1ED00420F2A4380252D047F
:101928001543CB4AC4009B18039300230293019BE1
:1019380000981E035A00DB0F360B520D049300D19A
:1019480031E1C24B9A4200D153E1430FF6003343D1
:101958008026BF4936041E43C3005018002205994B
:10196800049F794000910399411806910131039130
:101978000299880010430A2800DD73E1022800DD7F
:1019880046E10138012800D855E1190C9BB20291B3
:101998001900220CA4B2514320008C46029F0299E0
:1019A80058435143674305916744010CC919049092
:1019B8008C4505D9802040028446059F67440597D9
:1019C800080C84466846008A090409180991310CF4
:1019D800B6B2049130002100049F50437C43714308
:1019E8007A4324180F0C3C19A04202D980204002E7
:1019F8001218200C8218240489B2079262180892DF
:101A0800089962468C46290CADB22800029F5843BB
:101A18006F434B4362449446029CFF18020CD21950
:101A28004C43934202D980235B02E418130C1B1920
:101A380002932B0080B21204121804987343454392
:101A48004E434143A8191D0C2D18AE4202D98020DF
:101A580040020918059C6046A446089C6044A042C0
:101A6800BF418018904292412E049BB2F618079B02
:101A78007F42F61853420493029BF4199C46A444EF
:101A88006346049ABC42A4419B18079A6442964252
:101A9800B641029A764234432D0C64199445AD41FF
:101AA800049A6D4293429241524215436419099A2D
:101AB8006418410211434A1E9141C00DDE0D6402B3
:101AC80001435B0226430B43E40100D4DFE001211C
:101AD8005A080B401A43F307CE401343039A5D4953
:101AE8005218002A00DCD5E0590709D00F21194007
:101AF800042905D0191D99429B415B42F6180B0039
:101B0800F10106D58021C9008C46534A1640039A34
:101B1800624452498A4200DD09E17407DB081C432C
:101B2800F60813053603009A360B3343D2071343DE
:101B3800200019000BB0F0BD2C0004432BD0002D61
:101B480016D02800FEF730FC040002000B3C1D23D1
:101B580030001B1B1100D84008398D4003002B436F
:101B680035008D403E492C008A1A1D000392DCE6A0
:101B7800FEF71AFC04000200153420321C2CE6DDA6
:101B8800330008388340EDE704002C4307D0039363
:101B980004000323CAE6250001230394C6E6039341
:101BA80025000223C2E6009B334329D0002E14D01F
:101BB8003000FEF7F9FB010003000B391D22180065
:101BC800521A009908388640D1403143009E864019
:101BD8002348C01A33000E00C0E6FEF7E5FB0100FB
:101BE8000300153120331C29E8DD009908388140AD
:101BF800EEE7009B334307D0030010000322AEE654
:101C08001E0018000122AAE610001E000222A6E605
:101C180001218140A6200F00C0000740014227D1C2
:101C280090208000014277D1B938FF38014200D1B5
:101C3800ABE604990091022A79D0032A75D0012ACB
:101C480000D04BE70026340032006AE7FF070000A7
:101C580001FCFFFFFF030000FFFFFFFEFE0700007F
:101C68000DFCFFFF059900910F2805D00B28E0D047
:101C78002E002300029ADEE78022120315424FD07D
:101C880016424DD13500049A00921C0048E0069A8D
:101C9800039223E70120801A3828D3DC1F2827DC89
:101CA8002649039A8C461C006244310093409140B7
:101CB800C4401A002143531E9A410B00C6401343E7
:101CC8005A0709D00F221A40042A05D01A1D9A4231
:101CD8009B415B42F618130080213000090408403C
:101CE8000E4227D17407DB0802001C43F60818E7E8
:101CF8001F2149428A1A3100D1400022202805D0EC
:101D08000F48039A844662449640320013435A1E91
:101D1800934100260B43D3E780253C002D03009711
:101D2800802636032E43074AFBE63500ADE700263A
:101D38003400F8E7002601223400F2E61E04000011
:101D48003E040000FF070000F0B585B00092019343
:101D5800CB0F0D030293019B4C006D0A410F2943E1
:101D68005D001E036B0D9C46019B760ADD0F009BF0
:101D7800009A5B0F3343BE4E640DC000D200B445D9
:101D880023D11E0016430396039FBA4EA619002FAF
:101D98000CD0029F0095AF4200D0B5E1002E00D1D3
:101DA80004E1002C00D0BAE26446B8E001276F4095
:101DB800029D0097BD4200D0AFE1002E00D1F5E0B2
:101DC800002CF1D0039908002FE0012675400095FA
:101DD8006546029F009E651BB74200D02EE1002D8C
:101DE80000DC76E06746002F21D11F00174300D1A1
:101DF80022E16F1E012D15D1821882428041C91837
:101E080040420918012410000B0200D496E0022475
:101E1800994B42080B40012101400A43D80710435F
:101E280059088BE0924EB54222D1914C86E0904EF3
:101E3800B44200D182E00026B4460136382D1ADCBF
:101E480080262F00360433431F2F31DC20251E0047
:101E5800ED1BAE40B44616000095FE4065462E4385
:101E6800009DFB40AA40551EAA4116439C4602E02D
:101E78000126382FE8DD3618864280416144404209
:101E8800091830000B0259D50026794B0134B446A5
:101E98009C42BDD1794B24051C4063461B031B0B98
:101EA8001C43029B3000DB071C43210005B0F0BD3A
:101EB8003D001E00203DEE400025202F03D0403578
:101EC800ED1BAB401D0015436B1E9D4100232E43A7
:101ED800CCE7002D6AD065462D1B002C1ED00024AF
:101EE8000126382D12DC8024240421431F2D4BDCCD
:101EF80020240F000600641BA040A740EE40374393
:101F08000600E940701E86410C003E43B01890421E
:101F18009241E4185242A1186446B3E72C000D0020
:101F2800054329D0651E012C23D180189042924187
:101F3800C918524289180B0200D568E7430709D02F
:101F48000F230340042B05D0031D834280414042E8
:101F5800091818000B0200D4E4E10026444B0134B0
:101F6800B4469C4296D0444BC0080B405E070643DB
:101F7800CDE13F4EB44202D119001000DEE7382D02
:101F8800B4DD00240126C1E72C000E00203CE64009
:101F980034000026202D03D04036761BB1400E00B9
:101FA8000643711E8E4126430024AFE7344E651C5C
:101FB800354233D10D000543002C11D1002DDBD063
:101FC8001D001543BAD0821882428041C918404288
:101FD800091810000B02B1D5274B01341940ADE7A1
:101FE800002D00D19BE11C001443002C00D11CE7FC
:101FF8004C07C00820438024C9082403214208D084
:10200800DD08254205D129005B07D0081843009B4D
:102018000293CB00410F1943C00006E7144CA542B8
:1020280000D196E1821882428041CB1840421B18A9
:10203800D8075208104359082C007FE7002D76DD99
:102048006646002E2ED11F001743F5D06F1E012DB6
:1020580018D1821A90428041C91A4042091A0124B3
:1020680010000B0200D469E7490206004D0A02E19C
:10207800FF07000001F8FFFFFFFF7FFF0000F07F70
:10208800FE070000B74EB54200D1CEE60126382F34
:1020980015DD861B6346B0428041C91A4042091AC1
:1020A8003000DEE7AF4EB44200D147E70026B44621
:1020B8000136382DEDDC80262F00360433431F2FE0
:1020C80011DC20251E00ED1BAE40B446160000951D
:1020D800FE4065462E43009DFB40AA40551EAA417E
:1020E80016439C46D5E73D001E00203DEE400025E6
:1020F800202F03D04035ED1BAB401D0015436B1E50
:102108009D4100232E43ECE7002E67D0002C25D0FC
:1021180019001000934C029510E7002E5ED0002C99
:102128001FD003998F4C0800009B029306E7002DEF
:1021380054D065462D1B002C1FD1009C02942C0006
:102148000D00054300D117E7651E012C0CD1101AAC
:1021580082429241591A5242891A82E7029564468C
:10216800EEE7009C0294FAE77E4EB44200D103E702
:10217800382D09DD0021012614E0382D2BDC8024C0
:1021880024042143009C02941F2D13DC20240F00FB
:10219800641B0600A040A740EE40441EA041E94051
:1021A8003E430643901B82429241591A524264466A
:1021B800891A56E72C000E00203CE6400024202D0A
:1021C80003D04034641BA1400C000443611E8C41C1
:1021D80000212643E6E700990291CBE7624E651C91
:1021E800354238D11D001543AC460D000543002C7F
:1021F80025D1002D08D1614626000294002900D17E
:1022080048E6190010008FE76546002D00D195E6D5
:10221800861AB042BF41CD1A7F42ED1B2F0206D568
:10222800101A82429241591A5242891A7CE73300A5
:102238002B439C4600D18FE0290030007EE6002D1C
:1022480007D1614600297AD01900009B100002933B
:10225800EBE56446C9E6861AB042BF41CD1A7F4213
:10226800ED1B2F0228D5161AB24292415B1A524230
:102278009D1A009B0293002D26D02800FEF794F8A3
:102288000300083B20223100D21A9D40D140294347
:1022980035009D409C423DDC1A1B0132202308007A
:1022A8009B1A2C009D409840D4406B1E9D41D14004
:1022B80020432843002441E633002B439C46DAD1CF
:1022C8001E001C000293E5E53000FEF76DF80300E0
:1022D80018331F2BD6DD3100083881409C4212DCB0
:1022E8001B1B5A1C1F2AD9DD0C001F3BDC40280091
:1022F800202A03D040239B1A99400800431E984186
:1023080000212043D6E7E41A184B0B405E07DB0890
:102318009C46BFE5E41A154B280019400EE6190043
:10232800100082E54B07C00803439C460D4B6646E8
:10233800C9089C4213D10E4304D1B446AAE50291C0
:102348008021090380231B030B436646054C9C46EA
:10235800A0E50026034CF0E7260002949AE58C4697
:1023680098E5C046FF070000FE070000FFFF7FFF5B
:10237800F0B51D004B005B0D9C460B4F14002B0362
:102388000A036E00120B1B0B760DBC4503D10243EA
:102398000120002A06D10020BE4203D123431800A1
:1023A800431E9841F0BDC046FF0700000B0070B502
:1023B800114E0C0349000200240B0020490DDD0FCB
:1023C800B14204DD0D48814202DD0D4BE81870BDB5
:1023D8008020400320430B4C641A1F2C08DC0A4E53
:1023E800E240891988401043002DF0D04042EEE7C2
:1023F800064B5B1AD840F7E7FE0300001D040000F7
:10240800FFFFFF7F33040000EDFBFFFF1304000014
:1024180070B5030002000600051E11D0C21785180A
:102428005540C40F2800FDF7BFFF0D4A121A0A28AD
:102438000FDC0B232E001B1A1530DE4085402300CD
:102448003603360B12053243DB071A432800110006
:1024580070BD0B38854023002E000025F0E7C046EC
:102468001E040000FE2270B54400240E4302611CC5
:102478005D0AC60F11420DD0E0229200A4181B0B72
:102488006D071B031B0B2405F6071C433443280068
:10249800210070BD002C18D12300002DF1D0280098
:1024A800FDF782FF0A280ADC0B232A001B1ADA40F0
:1024B8001300020015329540094C241AE1E7030085
:1024C8000B3B9D402B002500F6E7002D06D01A0B8C
:1024D80080231B036D071343024CD2E72B00FBE755
:1024E80089030000FF0700009140030090409C46CC
:1024F800203A9340194352426346D34019437047E8
:1025080010B5002903D1FDF74FFF203002E0080085
:10251800FDF74AFF10BDC0460023C25C0133002A04
:10252800FBD1581E7047F0B506000F0015001C00BF
:1025380085B08B4263D801D1824260D8210028003F
:10254800FFF7DEFF390000903000FFF7D9FF009B4E
:1025580021001B1A1A0028000393FFF7C5FF0090FB
:102568000191B94245D801D1B04242D8009B019CA3
:1025780001200021039AF61AA741FFF7B5FF0400CE
:102588000D00039B002B2BD0019B009ADB07500802
:102598001843019B5908039B9C46B9422CD801D18A
:1025A800B04229D832003B00121A8B4101269218FA
:1025B8005B410027B6185F4101235B429C44634698
:1025C800002BEAD130003900039AFDF7A3FE039AE5
:1025D800A4197D4106000F00FFF786FF241A8D41DC
:1025E8000A9B002B01D01E605F602000290005B007
:1025F800F0BD00240025C4E7B6197F41DCE70024BC
:102608000025EDE7F0B58FB009920B9383680CAA0B
:102618001B699847002846D10D98FFF7F9FE00225C
:102628002E4BFEF7B5FD04000C980D00FFF7F0FEE9
:1026380002000B0020002900FEF7BAFA01224B0025
:102648005D080F00264B290052420600FFF790FE56
:10265800244B0A93002819D1012230002900204B6D
:102668005242FDF78DFE002810D10B9B03220693E2
:10267800099B0496059703931B4B0A9902930190B3
:102688000300009005F089FF0FB0F0BD0020099B02
:1026980001220393154B0A990293030001900090BD
:1026A80005F07BFFF0E703000E49863309D10020CF
:1026B800099B022203930E4B0190029300900300A2
:1026C800EEE704900020099B01220393094B019037
:1026D80002930090030005F060FFD5E780842E4147
:1026E800FFFFEF7F08A000107CA200108CA2001052
:1026F8009EA20010B0A20010F0B50500002785B01A
:10270800AB6840212800DB689847224E00280FDA82
:1027180003900020204B0122029331000300019016
:10272800009005F03AFF1D48002105F0ABF9E7E7F6
:1027380000241B4B013731002000029303222300A1
:1027480003970194009405F028FF28000D21154BEC
:10275800154AFFF757FF28001021144B144AFFF7BA
:1027680051FF28001121134B134AFFF74BFF280094
:102778004121124B124AFFF745FF124B03220293E5
:102788003100230020000194009405F006FF0E4854
:10279800CAE7C04608A00010BDA20010102700001C
:1027A800D5A20010F3A20010F7A20010BAA40010DE
:1027B80003A300109AA400100CA3001012A3001089
:1027C80016A300101EA3001050C30000F0B500208F
:1027D80089B001F081FC2E4D041E0CD0039000201E
:1027E8002C4B01220293290003000190009005F070
:1027F800D4FE09B0F0BD0021274805F043F9274E63
:10280800300006F0E2FF002809D1254B012202938F
:10281800290003000190009005F0BFFEE9E70022BF
:10282800002306920793072380221E4F1E48039316
:1028380000963B001D49049402940194120106007D
:1028480004F086FE1A49300007F097F8194B032266
:1028580029002000029301942300009405F09DFEB6
:10286800154B0322029329002300200001940094B1
:1028780005F093FE0021114805F004F90020104BE3
:10288800032202932900030001900090F0E7C0465C
:1028980008A000103AA3001010270000009E0010A6
:1028A8004EA3001001270010F8030020B8120020E2
:1028B80066A3001075A3001094A30010C027090098
:1028C800BBA3001070B504000D0086B083685B6C74
:1028D800002B25D1A3685B6B002B26D1F62676004A
:1028E800A3689B69002B24D016210122200069448B
:1028F8009847020001281CD1162328006B441900B0
:10290800303006F013F801282BD000201D4B02228E
:1029180002931D4903000190009005F04CFEDFE78B
:1029280098470028D6D106B070BD200098470028E7
:10293800D4D1A3685B6A002B17D1172328006B44F6
:1029480001221900443006F011F80200012811D1C3
:10295800A3685B69002BE6D01721200069449847DB
:10296800E1E7AB590133AB51BAE72000984700289B
:10297800D9D0E2E7A3681B6A002BD4D0200098477F
:10298800D1E7C046D3A3001018A00010F8B5140072
:102998001D0006000022200029001A4BFDF7DCFC70
:1029A80000282ED120002900174A184BFDF7E8FC13
:1029B800002826D129002000FFF7F8FC0700FFF7C0
:1029C80027FD02000B0020002900FFF7BDF90022B7
:1029D8000F4BFEF78FFF00220A4B04000D00FDF796
:1029E800BBFC00280DD120002900074A074BFDF742
:1029F800C7FC002805D1200029003760FFF7D6FC66
:102A08007060F8BD0000E0C10000C0FFFFFFDF41BB
:102A180080842E4130B5046987B02000D930FF305A
:102A280006F032FF8022520022642200230059322D
:102A3800FF326264802258332363002362656D325B
:102A4800FF326363A363E363A364E36423653148EC
:102A5800A3500432A3500432A350E06206F0B5FE3E
:102A68002D4D00280CD12D4B0190029300900300AE
:102A78000122290005F09FFD1320404207B030BD18
:102A8800E06A83681B69002B0ED004A998470028C8
:102A98000AD1049B03220393214B2900029301903E
:102AA8000300009005F087FDE06A8368002B05D0DD
:102AB8009B6C002B02D022001A499847E06A836871
:102AC8009B6A002B00D098470024174B032229004B
:102AD8002000029301942300009405F06CFD8023EC
:102AE8005B000393114B03222900200002930194F9
:102AF8002300009405F05FFD802303930C4B200016
:102B080002930322230029000194009405F053FD49
:102B18002000B3E7A09D001018A00010F1A300103A
:102B280007A40010CD28001022A4001041A4001012
:102B380055A40010F0B507699DB006F0E5FF0A221C
:102B48000023FDF76FFCFA22002352008018594138
:102B58003B00D933FF330890099107930122524271
:102B6800D317079804F026FA3B00002228331A707E
:102B7800079804F097FA06F0C7FF00230A22FDF72A
:102B880051FC099B8B4210DC02D1089B83420CD874
:102B980000208A4B0190029300900300012288498B
:102BA80005F009FD74204042AFE03C0030340122BA
:102BB80020000AA905F0DAFE012805D104AB1B7E26
:102BC800AA2BF2D10BAA1370FB8E7A8F9B1A9BB299
:102BD800432B1CD91D2104ABC9180122200005F084
:102BE800C5FE1E2104AB012220000BADC91805F05B
:102BF800BDFEAA78402A0FD90020724B0392029397
:102C0800012203006E490190009005F0D4FC0021D8
:102C1800642004F037FFAEE71F2104ABC918200079
:102C280005F0A4FE5F2104ABC9180122200005F0BD
:102C38009DFE00226E782B78A97873404B408A421B
:102C480010DB5F2204A9521812789A420FD0002094
:102C58005D4B012202935A4903000190009005F050
:102C6800AAFCD4E7A818C07801324340E7E7F82265
:102C78005200BB580133BB50012EC8D10122524229
:102C8800D317079804F096F9EC78022C3FD0032C60
:102C98005FD0012C00D085E0AB780A2B2ED92621F5
:102CA80004AB0422C9180AA806F054FF0A98FFF7D3
:102CB800D9FB020038000B001830FFF767FEF869EF
:102CC800FFF7A6FB0022414BFEF762FA0400B86941
:102CD8000D00FFF79DFB0B00020029002000FDF707
:102CE80067FF04900591364E394B0020029303226A
:102CF800030031000190009005F05DFC01222837A7
:102D08003A70079804F0CEF900201DB0F0BDAB78FA
:102D1800042BF3D90C98FFF7A5FB02000B00380031
:102D2800FFF734FE7868FFF773FB0022274BFEF7A6
:102D38002FFA040038680D00FFF76AFB0B00020049
:102D480029002000FDF734FF1D4E04900591214B0A
:102D5800CBE7AB78042BD1D90C98FFF783FB0200A3
:102D680038000B000830FFF711FEF868FFF750FB3A
:102D78000022164BFEF70CFA0500B8680E00FFF7A4
:102D880047FB02000B0028003100FDF711FF0490FB
:102D980005910020104B220002930949030001907D
:102DA8000090A9E700200D4B32000293044903006C
:102DB80003940190009005F0FEFB9FE7D8A4001053
:102DC80018A0001069A400107CA4001080842E4173
:102DD8008EA400109EA40010ABA40010BCA4001088
:102DE800F0B597B0059304230B921A400B9B0A92F7
:102DF800DA0807231A40013207001C9D03910D923F
:102E0800820700D0C5E1041D002804D0072909D88D
:102E18001C20404254E1039A1A401300A4180822C7
:102E2800D31A0393059B0426013B069300230993B9
:102E38000C9304930293013B07930196002F01D052
:102E4800059B23600D9B002B00DDF1E09D4B059A4F
:102E58009A4203D39C4B9A4200D2E9E00B99E21BB9
:102E68009308890700D50DE1049A0F2A00D9BBE021
:102E7800002F00D10EE104990EAA53540A000799B5
:102E880012AB99540C9B01330C93F4E0082601967D
:102E9800069B01330693069B9878002800D105E12C
:102EA800029B002B08D12528F2D1079B01330793F9
:102EB800012302930426EAE77A284AD84B280ED839
:102EC800472846D829282CD825283FD041D820285B
:102ED800DED0233843425841C3B20293D8E74C3876
:102EE8002E2836D8FDF75CF9D435353535353535E6
:102EF800353535353735353535353535356135374A
:102F080037616161D437D235D435183718353579FA
:102F1800E63735353735E600002308930426029353
:102F280027E0012213002A38C0B2834067490B42C8
:102F3800AED1E2211800890508400B4235D11900AD
:102F4800114002911342A3D0089013E0079B013B64
:102F580007930023C1E70022069B08925B78029240
:102F68006C2B07D10426069B01961B786C2B01D18C
:102F7800B6190196013CA0193100FDF72FF97043ED
:102F88000400002F3BD0019B039ADB1B1B189342C4
:102F980000D93DE7089B002B41D1019B042B20D190
:102FA80008CD03600423043415E0072107358D4359
:102FB80064188C430CCD002F08D00131C91B03982D
:102FC8000919814200D923E722606360002308269B
:102FD80002933300083401935AE7029B08930023B5
:102FE8009CE7019B082B01D0162012E70723073521
:102FF8009D430CCD0260436008230834EBE7089B2F
:10300800002B0CD1019B042B01D10435CAE7019B8D
:10301800082BE9D10735013B9D430835ECE7069BB2
:10302800023306930D9B013B0D9308CD059305E7ED
:103038000B9B9B0722D50121E21B9308802080006F
:103048008242D1D2049A0F2ACED8002F1CD00498DD
:10305800DBB20EAA13549C46079B12AA13540029EC
:1030680000D10FE780226346524213430EAA13543D
:10307800099B01330993049B01330493069B043491
:10308800013B07E70021D9E7002903D0039B01335F
:103098000393F0E7039B023303930A9B002BEAD1C7
:1030A8000598FFF739FA039B1B18F1E78022E31B09
:1030B800D200934298D2002F0AD103980838C0183A
:1030C80017B0F0BDC89C001044AE0010DAFF000035
:1030D8009B08302238603B706B469B180A9A1B7815
:1030E800002A0BD0FB70099BBB70002B1BD100255D
:1030F8000EAE049BAB421BD1E01BE1E77B70F2E70D
:103108000EADED560EA9595C002D07DA039E151970
:103118000140B54200D97BE621700134013304999E
:103128009942EDD1E3E7012200237F20D21BF6E785
:10313800099B002B02D033787F2B1BD80A9B002BCE
:103148001BD012ABEB5C23700023013401930123E5
:10315800019ADB1B1B199B18039A934200D957E667
:103168003378019A237001342000059906F0F2FCA7
:10317800019B1C1901350136BBE733789B00FB180E
:103188001A6805920A9A05981A60FFF7C5F9431C50
:10319800DCE70E203DE6C046014B18607047C0468C
:1031A800B0000020F7B504000D001E00019204F0E5
:1031B800AFFC030006F072FD054F32003B50019949
:1031C8002800A04706F06AFD385801F0FBFEC0460B
:1031D80008000000F0B585B001903048039105F073
:1031E800F1FB061E0AD1040001272D4D2D4B9D42EF
:1031F80006D3019B002B01D0002C21D105B0F0BDD6
:103208002B7B002B11D02B68DB68002B01D028000A
:1032180098476B689F712B681B69002B08D16B68F6
:1032280004222800196805F0E9FB01361035DDE7AE
:10323800280098470028F2D03B00B3401C43F4E72D
:1032480027002000FDF7CEF801238340DA43144E0F
:1032580005019C43731901931B7B0292002B0CD030
:10326800AB591B69002B13D1029B76191F40736859
:1032780004221968019805F0C1FB002CE1D1039BD9
:10328800002B03D06420002104F0FCFB3C00B3E7D2
:10329800019898470028F0D1E6E7C0467809002051
:1032A80048A0001058A00010014B8000C05870477B
:1032B800A0A00010030010B50800002B05D0044A98
:1032C800136000F07BFA002010BD16204042FBE797
:1032D800B40000200023FA210B4A10B513700B4AE2
:1032E800890013600A4A0B481360FFF7E3FF0A4B93
:1032F8000A4918008B4200D310BD1A1A5C681211D3
:10330800013222711033F5E79C1200207009002069
:1033180074090020BD89001048A0001058A00010B2
:1033280070B50C4D2978002908D10120FFF752FF0C
:10333800094C0A4B9C4202D301232B7070BD636871
:103348005B79002B03D0236820009B6898471034D2
:10335800EFE7C0469C12002048A0001058A00010BB
:1033680010B50400044805F02DFB002C03D0012102
:10337800024806F0DAFB10BD70090020740900202D
:1033880070B50A4B05001B689847094CA860094BA3
:103398009C4200D370BD63685B79002B04D023681E
:1033A800290020001B6898471034F0E7B40000207B
:1033B80048A0001058A00010044B054A00209B1A92
:1033C800DB08994201D2C9008858704748A000100C
:1033D800E89F0010F0B589B004AF3E6B04001500FB
:1033E80079603B60002E1CD07B6B1021FB60009342
:1033F80000203300FA6AFFF7F3FC802301001B0169
:1034080098420FD300201D4B022203931C4B1D49E9
:10341800029301900300009005F014FBBD4605B02F
:10342800F0BD31000722230015401340DB00AD0139
:103438001D434B021D43BC6ABB6A17341B051D4361
:10344800631893430333043A93430733D3409340B9
:103458006A46D31A9D4604AC002E07D020007B6B29
:1034680010300093FA6A3300FFF7BAFC2A002000F4
:103478003B68796805F0CDFAD0E7C046FF07000041
:1034880026A50010F09F00104068002804D0044BC7
:10349800C01AC00800B2704701204042FBE7C0468E
:1034A800E89F00100EB417B5054C05AB04CB01001E
:1034B8002000019301F0A2FE1EBC08BC03B018470F
:1034C800898A001010B5CB0604D4890603D50349B0
:1034D800FFF7E8FF10BD0249FAE7C0465FA50010F4
:1034E8005EA50010F0B591B0079317AB1B780700E5
:1034F8000C0006920593002B00D1B4E002251B9B1B
:103508001B9A1D4001231A400C921B9A07331A403C
:1035180008921B9AF8331A400992002605F06CFAB3
:103528000200B04204D038009049FFF7BBFF060004
:10353800002D09D044231B9A1A4235D122003800A5
:103548008B49FFF7AFFF36180C9B002B0AD0059A62
:10355800884B9200D258002A00D1874A3800874900
:10356800FFF7A0FF099B002B5AD0089B002B77D1AF
:103578001C00069B002B05D01A0038008049FFF775
:1035880091FF0400189B7F48A419002B00D0BEE0CF
:103598001A9B002B74D11B9BDB0700D5E0E0380099
:1035A8001B99FFF78FFFBEE00020774B1D6885420F
:1035B800C9D0764B20001968FCF710FEFA242900C0
:1035C800FCF748FEA40061430A9008002900FCF7B4
:1035D80041FE0E91E1210D9009010A98FCF73AFE8F
:1035E8000B910B983C21FCF7F9FDE1210F900901A3
:1035F8000A98FCF7F3FD0A900E9829006043FCF73F
:10360800EDFD0D9B02903C210B980193FCF722FEE7
:10361800380000910F9B0A9A5D49FFF743FF92E734
:10362800089B099C002B08D0059A5A4B9200380039
:103638005949D258FFF736FF0400069B002B05D0E6
:103648001A0038004E49FFF72DFF2418079B002B5E
:1036580098D01A0038005149FFF724FF241891E741
:1036680000230793E0E7079B4D48012B00D145480D
:10367800189B059C002B4AD11A9B002B53D0002481
:103688001A9E102E00D9102638001B99FFF71AFF32
:103698000025AC4252DC199B38001A784149FFF7E3
:1036A80001FF012507231D4203D138003E49FFF7DA
:1036B800F9FEAE4248D9199B38005A5D3949FFF7DF
:1036C800F1FE0135102DEDD1002538003749FFF7FF
:1036D800E9FE2B00199AD25C1300203B5E2B00D91F
:1036E8002E2238003249FFF7DDFE0135102D30D08B
:1036F80007231D4203D138002B49FFF7D3FE2B00C7
:10370800AE42E7D838002849FFF7CCFEEDE7189B12
:103718003A00284905F079F81A9B002BB0D1059B8F
:10372800002B00D037E77A68B9680CCA386805F00A
:1037380098F900227B681A6011B0F0BD38001A4968
:10374800FFF7B0FE0135A4E738001B49FFF7AAFED2
:10375800B7E7199B9B1919931A9B9B1B1A93DCE7D4
:103768003800054A0549FFF79DFE18E766A50010D1
:103778006AA50010B0A0001061A5001089A2001071
:103788008FA50010898A0010800900207C0900207C
:1037980073A50010C4A0001093A5001099A50010EF
:1037A800A18A00109EA50010A6A50010A8A50010CB
:1037B800AAA5001005520010A4A50010012310B5F9
:1037C80000211C00074A904207D8074A002900D167
:1037D80001231360054B186010BD210040085B00F1
:1037E800F1E7C04640420F007C0900208009002014
:1037F80070B50D0004004618B44201D1280070BD10
:1038080021780348013483685B689847F4E7C04629
:10381800809D0010F7B5FF270D4B0E4C5E6A0E4BCE
:103828000194019CA34202D3862040420CE05D68CB
:10383800B5420AD31C69002C07D0AD78AC46858800
:103848003D40AC4501D1A047FEBD2433E9E7C04661
:10385800A8090020F4030020D0030020F8B50500D3
:103868000E001700114C124B9C4202D38620404296
:1038780012E0104B62685B6A9A4215D3A369002B69
:1038880012D09178FF208C46A98801408C4504D13C
:103898003A00310028009847F8BD5279012A03D12F
:1038A8003A003100280098472434DCE7D003002090
:1038B800F4030020A8090020F8B505000E00170041
:1038C800094C0A4B9C4202D3862040420AE06369B5
:1038D800002B01D12434F4E73A003100280098473E
:1038E8000028F7D1F8BDC046D0030020F40300201B
:1038F80010B508220021024806F035F910BDC0466F
:10390800630A002030B50A4B0A4CA34201D30020B9
:1039180030BD1A7F196AD2005218914201D124335E
:10392800F3E708310D1F2D788542F6D10120EFE726
:10393800D0030020F403002010B5084C23785B0660
:103948009B0F0A339B001B59181E05D02000044A00
:1039580004499847C043C00F10BDC046A8090020BD
:10396800B0090020B80900201FB57F22702302404B
:1039780018420ED000240C4B039002932000230021
:1039880001220A490194009405F0F8F8200004B0D7
:1039980010BD012143B208009040002BF7DA103225
:1039A80091400800F3E7C046E7A5001038A00010D2
:1039B80030B585B0050005F01BFB03000400783323
:1039C80013D10020114B02220293114903000395E1
:1039D8000190009005F0D2F82800FFF7C5FF0D4AC6
:1039E80000241368834313600CE00028F4D00020FF
:1039F800094B0122029306490300039501900090A8
:103A080005F0BCF8200005B030BDC04602A6001085
:103A180038A000106C0A002023A60010F0B585B06D
:103A280004000191042813D0012828D1204B1B78C9
:103A3800002B24D000F010FF1E4E1F4B9E421BD2BD
:103A48000025336A0293337FAB4204D82436F4E767
:103A5800FFF74EFFEAE7029BEF00DF19387905F020
:103A6800C7FA03903879FFF77FFF144A1368834336
:103A78001360039B002B0FDA00220D4B1A700D4DBB
:103A88000D4B9D420BD30E4B1B6A002B02D020001E
:103A98000199984705B0F0BD0135EDB2D3E7EB6861
:103AA800002B03D021002800019A98472435E7E726
:103AB800610A0020D0030020F40300206C0A0020D3
:103AC800A8090020F0B5172687B0C5B26E440C00CF
:103AD80035706B0609D02800FFF714FF00281CD0AA
:103AE8000020184B1B78834217D0174F17490395AE
:103AF800002C14D00020164B0322029301900300DF
:103B0800009005F03BF8307801F08CFFFB69002B42
:103B180002D0310008209847012007B0F0BD0D4BB6
:103B280003222000029301942300009405F026F854
:103B3800307805F039FAFB69002BEDD03100092007
:103B4800E9E7C046620A0020A809002038A0001052
:103B580045A6001058A60010F0B5050087B080787B
:103B680004AC20706B792A791B021343032263800B
:103B7800EB7813402371FFF7F7FE2C4B07001B6807
:103B88002B4E03420DD0AD78280000F04BFE2800E4
:103B9800FFF70EFF05F0EBFE002802D1963005F086
:103BA8005AFF200005F0F0F902002378783225D179
:103BB800002003931F4B022202931F490300019028
:103BC800009004F0DBFF207801F054FF0300783305
:103BD80024D10020237802220393184B164902931C
:103BE80001900300009004F0C9FF33000120B933AD
:103BF800C436187033683B4333600DE00028E2D0C8
:103C080003930D490E4B002002930190030000908E
:103C1800012204F0B3FF002007B0F0BD0028E4D073
:103C2800237805490393074BEDE7C0466C0A00204B
:103C3800A80900206DA6001038A00010B4A6001036
:103C480090A60010D4A60010F0B5AB4F0600BB69D3
:103C58000C00150085B0002B18D13178C806C00EAD
:103C6800012800D178E0022800D1E6E0002820D120
:103C78002A6873787F2931D9062B0CD0082B28D0D5
:103C8800002B16D113705370023311E198470028A6
:103C9800E3D100200FE071880A0A131FD6B2012B66
:103CA80007D9072A05D8CBB201937B6A1F78002F62
:103CB80003D11620404205B0F0BD5978B14204D175
:103CC8000199814200D1EBE00130DB19EEE71B7866
:103CD800EEE0BA373B7813700123E9E0052B11D0E9
:103CE800092BE6D173887C6A002B32D1FFF700FEDE
:103CF80039007388BA310B70FB69002BC9D00320D7
:103D08009847C6E7B07801F039FE0028C1D0D0E75F
:103D18006378042B09D0052B11D0022B07D16579C4
:103D28007388AB4203D1012001E0E3780193237843
:103D3800E4182378002BEBD10028BAD0D6E7738893
:103D4800AB42F4D1019B002BF1D12000FFF704FF17
:103D5800EDE7FF250195ECE72B6802933B00BA33AA
:103D68001B78002BA5D0B388DAB294467A6A019200
:103D78001578002D9DD050780390022803D1107932
:103D8800604500D996E05219F2E7029B1A705A7002
:103D9800039B8DE001998A18019295E00B2A00D0C7
:103DA80087E70024FF25039402950AE0019B5B78CE
:103DB800042B14D0052B28D0019B019A1B78D3180B
:103DC8000193019B1B78002BF0D1FB69002B02D0DB
:103DD800072003999847002C00D05AE769E7019B10
:103DE800DB780293019B9D78B3889D42E4D1738868
:103DF800029A9A42E0D1019B00240393072DDBD855
:103E08007B19BB331A700134D6E7B388AB42D3D1E0
:103E1800B378029A93420BD0019B9C78200000F063
:103E280001FD2000FFF7C4FD43425841C4B2C3E777
:103E38000198FFF791FE0400BEE773787F2918D92F
:103E4800002B00D035E736792D6873060AD030008C
:103E5800FFF758FD002800D12BE7BA373B78002B35
:103E680000D126E72900300005F0B3F800236B7075
:103E78000AE7012B09D0032B00D01AE77388002B1F
:103E880000D016E70121B08804E07188002900D02D
:103E98000FE7B088FFF716FE002800D0F9E608E71C
:103EA8002B60022A00D012E79A78DB781B021343B2
:103EB8002360EEE672787F2900D86FE7002A00D1E8
:103EC80063E70A2A00D0F4E6019A1278002A00D1A2
:103ED800EFE601994978042900D05BE701998978D0
:103EE8008B4200D056E70022072B02D8FB18BB33C1
:103EF8001A78029B1A70EFE6A8090020F0B50500B1
:103F08001F00042687B0049105923B002800059AFB
:103F1800049901F0D7FD030004000B330FD10020F2
:103F2800084B022202930849030003950190009070
:103F380004F024FE013E03F029FD002EE5D1200007
:103F480007B0F0BDF5A6001038A0001013B5154C49
:103F5800237D002B1ED1E26801AB8020A16801926D
:103F6800FFF7CCFF019AA3689B18A360E3689B1A2C
:103F7800E3600ED1002A0CD02069E388834208DD73
:103F88002300C8331978FCF7B9F9002901D10123B6
:103F9800237513BD002180200B000A00217501F054
:103FA80091FDF6E7A8090020002330B589B0050087
:103FB8000C000593984266D1994240D10B00082223
:103FC800200006A905F031F8002804DA802001F065
:103FD80029FD09B030BD6B46304D069ADB8B2A604F
:103FE800079A2C756A602E4A2C61AA606A46127E6E
:103FF800EC6052B2002A15DB802B0ED9294B012226
:1040080020002949029301942300009404F0B6FD8E
:10401800802001F007FD2000D9E7002B02D02B619A
:10402800EB60D6E7FFF788FC0028CFD02A69EB8839
:10403800934200DD1300EB60FFF788FFC9E7174CD8
:1040480005ABE268A168002A05DC020004F0EDFF78
:104058000028BEDABAE704F0E8FF002804DA802076
:1040680001F0E0FC2800B2E7059AA3689B18A3605A
:10407800E3689B1AE360ACD1094BA360FFF75CFCD3
:104088000028D9D1A2E78028A3D1044BDA68002AF6
:10409800D2D11B7D002BCFD19BE7C046A8090020B9
:1040A800E00900201CA7001038A00010054B064AA4
:1040B80058629A62054A0020DA62054A1A63054A7C
:1040C8009A617047A8090020513C00101D38001063
:1040D800C138001065380010F0B5040089B0554BA0
:1040E8000593059801225242D31702F063FF524B01
:1040F800524D1B78002B11D00020514B0222029305
:10410800504903000190009004F038FD782464427F
:10411800059802F0C7FF200009B0F0BD6B6A002BBC
:1041280011D100F0D7F8FFF7C1FF686A00280AD15B
:10413800454B01220293434903000190009004F08B
:104148001DFD0124E3E741482C62E8616E6A01F035
:104158000FFC01F067FB041EDADB00F09DFB041E78
:10416800D6DB7378012B02D1F379002B0BD1002019
:10417800374B01220293334903000190009004F069
:10418800FDFC1624C3E72A00002706AEC83230001B
:10419800137073803771377004F0F6FE0400B8426C
:1041A800B6DB80233000337004F0EEFE0400B84222
:1041B800AEDB284E3800310004F0DAFE0400B842C5
:1041C800A6DB3100802004F0D3FE234E0400B84261
:1041D8009EDB224B9E421AD3002001F04BFC041EAA
:1041E80000DA95E72E000127C436336880203B4368
:1041F800336001F03FFC041E00DA89E7802332684F
:104208005B021343B835002433602F7080E7002425
:10421800376A337FA34201D82436DAE7E300FB1874
:104228001879196804F0A4FE00288AD10134E4B290
:10423800EFE7C046F0020020600A0020A80900202D
:1042480035A7001038A0001058A70010253A001014
:104258007DA70010B13F0010D0030020F403002018
:10426800F0B58BB01122194905A805F073FC10228E
:10427800002101A805F077FC154C1222002120002E
:1042880005F071FC102101A805F026F800281ADDB8
:10429800082800DA0820083801AB1B180F20210075
:1042A8000022844614276D46985CED190609AE5D18
:1042B800654628406D46ED19285C01320E7048703D
:1042C8000231082AEED120000BB0F0BDB7A70010CC
:1042D8009F120020F0B5934B8FB01B780793002BEB
:1042E80002D091480FB0F0BD8F4C904B069300233D
:1042F8001D000993089305932378002B07D18C4B55
:1043080002349C42F1D10122864B1A70E9E76078A9
:1043180005281ED8FBF758FFB70006000401B700B0
:1043280020005300079B0CAE337040237380079B1B
:104338003000337101F050FB002808D0082330000A
:10434800738001F049FB002801D0079B73807388B4
:10435800E3712378E418CFE7E378002BF9D1A37849
:10436800002B22D0089B0133DBB20893F1E76A687F
:1043780094421DD024359D42F9D300206D4B012273
:1043880002936D49030003940190009004F004FC2B
:1043980000246A4B200002930122230066490194FD
:1043A800009404F0F9FB20009CE7654D654BE2E7BB
:1043B800AB68002BD6D0200008999847D2E7002D8B
:1043C8005FD1614B0122029328002B005A490195C5
:1043D800009504F0E1FBDBE72A6AFB00D3180A9397
:1043E800A2781B799A423FD101260321F3B20B939D
:1043F800E3780CAA0B401371637921791B020B43F4
:104408005380A3787F2B22D93300012210339A409E
:104418001300069A1A4224D180230B9A134308AA40
:1044280013740CA801F0D8FA00281AD108AB1B7C29
:104438000A9AA37013715BB2002B0FDA01230B9F4A
:104448001037FFB2BB40069A1A43069281E7012350
:10445800B340069A1A4204D1F3B2E0E70123B3400D
:10446800F1E70136102EC0D101372B7F9F42B3D31D
:104478000020364B012202932F490300019000903F
:10448800A7E70027F1E7099B032B28D1FFF7E8FEF0
:10449800071E17D0FEF740F8061E13D0102809D0C3
:1044A80000202B4B02220293234903000190009025
:1044B80004F072FB3200A01C102E00DD102239001F
:1044C80005F048FB2378E2185B08E318911E121BDD
:1044D800032A13D5099B0133DBB2099339E7099BFA
:1044E800002BEFD1059B002B0FD11A4B0122029311
:1044F800059B11491800019300936AE7079A013B4D
:104508004A705A780A700A00E0E7059B059AE31A90
:1045180093709BB21B0AD3701300089A1A71D9E7DB
:10452800059416E79E1200202C03002001000100CC
:10453800CF030020C8A7001030A00010AEA80010BC
:10454800D0030020F4030020E8A7001029A80010D9
:1045580046A8001091A80010094A0023110010B5C0
:104568001478844205D15468002C02D09B01C818E5
:1045780010BD01334032042BF2D10020F8E7C046C9
:10458800740A0020F0B504002C3C63680600257806
:104598008BB0103330D1E16B02230F00E2681F406B
:1045A80019423BD0002A07D1DB18194202D0002358
:1045B800636021E00B43E3632800A16809ABFFF7C0
:1045C8009DFC00280ED003900020314B012202935D
:1045D8000300304904950190009004F018FB16235D
:1045E8005B42E5E7099AA3689B18A360E3689B1AF6
:1045F800E36023699B182361636810330CD0236937
:1046080067690693A369079305F0B1F9002833D0C9
:104618003100214805F093F90BB0F0BD2800A168DE
:1046280009AB01F0B7FA00280AD0194B039002939E
:1046380001223B0038001749049501970097CCE701
:10464800099FA368DB19A360E368DB1BE3602369A8
:10465800DB192361002FAAD0280004F0F9FC01001F
:104668003800FBF7F7FD0029A1D1E368002B9ED0A5
:10467800280001F01BFBBFE760613000103802F032
:104688005DFD002FC8D02800079A0699B847C3E7F0
:10469800DCA8001040A000106804002070B54B1E74
:1046A80006000D0086B0012B18D8FFF755FF041E31
:1046B80016D1012D12D113210122300005AB694416
:1046C80001F068FA05980028F5D10D4B01220293F4
:1046D8000C4903000190009004F099FA06B070BDEF
:1046E80005F045F921002C31002801D0012D03D116
:1046F8000800FFF747FFF1E7034805F020F9EDE769
:10470800F9A8001040A0001068040020F0B58BB094
:10471800060009910692079304F088FA002800D051
:104728006EE0EFF31083089372B60700364B0593DB
:1047380000220023059802F033FD002814D1334BE2
:10474800BA019C1865682900103128D1304B012224
:1047580002933049030003960190009004F057FA41
:10476800059802F0EBFC11E0059B013740330593F7
:10477800042FDDD10020284B012202930C250300D1
:1047880024490190009004F042FA6D42089B002BE6
:1047980002D162B6BFF36F8F28000BB0F0BDD654BC
:1047A800099B2061A360069B3000E360109B636156
:1047B800079BE363119BA36110235B42636004F0D2
:1047C80047FC00280CD0300004F042FC0100069899
:1047D800FBF740FD002903D00423E26B1343E36396
:1047E800079B9B0707D50D4BB9010D48C91805F064
:1047F800A6F80025CAE7300001F058FA0500C5E719
:1048080010256D42C8E7C046900A0020740A0020AF
:104818002EA9001040A0001013A90010A00A002023
:104828006804002010B5EFF3108472B6FFF794FE09
:10483800011E09D04368103306D18C235B424360C4
:104848002C31044805F07BF8002C02D162B6BFF386
:104858006F8F10BD6804002070B500250C4CEFF375
:10486800108672B66368103307D18C2321005B422F
:10487800084863602C3105F062F8002E02D162B658
:10488800BFF36F8F01354034042DE8D170BDC046A9
:10489800740A00206804002070B500250126084C21
:1048A8002000084905F033F82000320031001038A4
:1048B800013504F0F0FF4034042DF1D1002070BD23
:1048C800A00A00208D45001010B5016901220B00D7
:1048D8004B331A700B68002B08D00B0049331B7838
:1048E800002B03D00248083105F029F810BDC04656
:1048F8006804002010B5036901211A004A321170BA
:104908001A68002A08D0190048331B780831002B90
:1049180002D0024805F013F810BDC0466804002014
:1049280070B50569EFF3108672B62B0090331868DE
:1049380003F0FCFF0400002E02D162B6BFF36F8FB4
:10494800002C06D02900002200230348183102F069
:104958009DFD200070BDC04668040020130070B59E
:1049680014000D001100012248331A702368083121
:10497800002B07D023004A331B78002B02D00D48A8
:1049880004F0DDFF230090331B685A89DB889A42C4
:1049980006D1002D0DD121001831FA22920004E031
:1049A800210000221831002DF7D00023014802F021
:1049B8006DFD70BD6804002070B506000D0001791A
:1049C8001248140004F001F900281BD032787378DB
:1049D8007F2A10D8202B03D0222B08D0862012E063
:1049E80007222168103805F0B5F8002070BD7388DB
:1049F80009380370F9E7212BF0D110381A3B2060F1
:104A08002B60F2E713204042F0E7C046740B002009
:104A1800054B010010B5180004F0E4F8002802D096
:104A280001230738037010BD740B0020030070B514
:104A38000025040048331D8007220949943005F0F9
:104A480089F8230020009C331D70013B1D7003333F
:104A580029001D809D7040224C3005F084F870BDFF
:104A680058A0001010B5046900222300A433186070
:104A78005A600B4A0433516800290DD15360136002
:104A880020000849083004F042FF20000649183089
:104A980004F061FF002010BD0B605360F0E7C046D2
:104AA800740B0020658C0010714B001030B50B00A2
:104AB8000E4985B0019180218902029101A90B81DB
:104AC8000023046942689D342370126A084D1079E6
:104AD8000A22FFF713FA2378002B05D10120013DA4
:104AE80004F064FE002DF6D105B030BDA120000011
:104AF800A186010073B56B460469DD1D2300002201
:104B080048331A702970EFF3108672B62300903379
:104B180001222900186803F009FF002E02D162B6AD
:104B2800BFF36F8F01280ED004F021FF002804D1B5
:104B38002300A1331B78002B0DD1094B1A78002ACA
:104B480001D101321A7021000A22002318310548C8
:104B580002F09CFC73BD00210A2002F093FFD2E70B
:104B6800B1120020680400207FB503008C331B6855
:104B780005005B681B6A1E7D300004F057F80028AA
:104B88002FD12B0086331B78002B2AD0A86F42899F
:104B9800C3889B1A80229BB2D200934200D913008B
:104BA800010003AA0A3103F071FE002819D02B0076
:104BB800002230331A703F2303405A425341C41A2B
:104BC8002B00183B0193074B2200039900933000F8
:104BD8000223FFF79BFDA86F220001000A3103F0B2
:104BE8008CFE7FBD6549001073B5050014000029CF
:104BF80025DD16000A0021008C3630684C3103F0A0
:104C080095FE2300012249331A702368002B09D02E
:104C180023004B331B78002B04D0210010480831A7
:104C280004F08DFE32689388918912695B1A9BB2F1
:104C3800D31A3F2B03D80123A034237073BD23005C
:104C48009E331B78002BF9D02100064B402200939D
:104C5800280001234C310194FFF758FDEEE7C046C8
:104C680068040020F14B00101D4BF7B50F00010040
:104C7800180003F09FFF041E23D005000368781E68
:104C88005E68A43D05281CD8FBF794FA1C1B031C7E
:104C98002024A31F1978002913D101221A70336A1E
:104CA8002A00187B5C3CFFF79FFF2178002908D178
:104CB800336A0A00187D0B4B019500930223FFF716
:104CC80025FDF7BD2800FFF7B1FEFAE70123053CF3
:104CD8002370F6E7053C2378002BF2D00023F7E792
:104CE800740B00206549001037B501230025802288
:104CF800064C0749200000955B42D20002F080FB79
:104D08002000044904F039FE28003EBD6804002054
:104D1800B81A002072A90010F0B507000D0087B07E
:104D2800002939D000248B68264E05934B68012250
:104D380004930B6820000393234B310002930194E2
:104D48002300009404F0B0F86B69012205932B69E5
:104D580031000493EB68200003931C4B01940293E9
:104D68000094230004F0A0F8EB6901220393184B88
:104D780031002000029301942300009404F094F879
:104D8800AB6901220393134B3100029320002300E7
:104D98000194009404F088F8012F0DD1EFF30583F6
:104DA8000020103B03930C4B3A0002930549030083
:104DB8000190009004F078F82900380001F0DAFE3C
:104DC80007B0F0BD10A000107BA90010AAA9001020
:104DD800D9A90010E8A9001016AA001030BFFDE7F5
:104DE800F7B50A4B0A4D0600EF18CC1B2A00200025
:104DF8000849019304F0AEFE60190021019A04F0FD
:104E0800B2FE3800083C74660830FEBD040000009D
:104E18000000000058A00010054B5A699B689A4290
:104E280005D08023034A5B0551680B4353607047E4
:104E38006412002000ED00E0F0B53E4B91B05F68D1
:104E48000400FB05DB0D079362B6BFF36F8F3A4E84
:104E5800130EFF2B0DD1F33B1340082B4AD1002032
:104E6800364B01220293310003000190009004F0B8
:104E780036F800252C00079B032B41D10020304B2E
:104E880001220293310003000190009004F027F8FA
:104E9800A3692C4A934202D32B4A934205D32B4A47
:104EA800934241D32A4A93423ED2023B1A88294B65
:104EB8009A4239D10020236831000393264B0122FE
:104EC800029301900300009004F009F8266820225C
:104ED800210008A804F03EFE0F9B002D26D0DA051D
:104EE80002D11E4A13430F93300008A9FFF714FF9D
:104EF80011B0F0BD01251207BDD50C000025BAE799
:104F0800F8235B00164A1F4200D0164A0020079B70
:104F18000392103B0493144B0122029331000300C7
:104F28000190009003F0DBFF0026D0E75B0A5B02EC
:104F3800D9E7C04600ED00E010A0001057AA001005
:104F480082AA0010A8010010C09C001000000020D8
:104F58000000002002DF000099AA0010FF010000F5
:104F680029AA00103EAA0010B5AA00100821024A7A
:104F780053698B435361704700ED00E0EFF30880FD
:104F8800EFF3098101B57246FFF756FF01BDC04630
:104F9800094880F3088872B608480949401880F320
:104FA8000988EFF314800221084380F31488BFF3C3
:104FB8006F8F03F0A9FF0000B82B0020B822002053
:104FC8000004000010B50A4B9B6883420DD1EFF333
:104FD8000583002B09D08022064B520559680A43E5
:104FE8005A605A6A04490A405A6202F097FD10BD95
:104FF8006412002000ED00E0FF7FFFFF15498A687A
:1050080015481044EFF3098CF0C043464C4655460A
:105018005E466746F8C072B6104F114E4A698A60FC
:105028003E60104C141920680F4C2060906E0023CD
:105038009366002800D162B6074C10191030F8C8E2
:105048009846A146AA46B346BC462438F0C88CF315
:1050580009887047641200203000000004ED00E069
:1050680000000008640000007C0B0020042071464A
:10507800014202D0EFF3098001D1EFF30880816982
:10508800023909780229FFD001B5724603F01BFFE7
:1050980001BDC04643B2000605D41F221A400123B1
:1050A8009340014A1360704700E100E043B20006F4
:1050B80009D41F221A4001239340034AD367BFF340
:1050C8004F8FBFF36F8F704704E100E030B5FF25C5
:1050D80003220B00290040B20240D20091409B01FC
:1050E8002B40C943934000280ADBC0240A4A8008A1
:1050F80080008018A40002590A401343035130BDB0
:105108000F2210400838054A800880008018C269BC
:1051180011401943C161F2E700E100E000ED00E051
:10512800FF22044B9343044A9360BFF34F8FBFF3AE
:105138006F8F70470001001000ED00E010B5203AB5
:105148001360029B01245360039B06499360049BF0
:10515800A143D36080235B04D3610023916102657E
:10516800836610BDAD31001070B5094B150098600D
:10517800426E084B0E001A602C1C86F3098800202A
:10518800054B9847201C002100220023034C204790
:10519800641200207C0B0020278F0010AD31001016
:1051A8001022014B1A61704700ED00E0F0B5C024F1
:1051B80000220326FF25A40010002F003040C00065
:1051C8008740054993089B005B1819590132B94378
:1051D80019511A2AF0D1F0BD00E100E010B5EFF343
:1051E8000583054A103BDB00D11849689858884761
:1051F800FFF712FE10BDC046209E0010F0B587B024
:1052080007000E0014000021102268461D0004F05B
:10521800AAFC6A4602239370054B2A0021006846BF
:1052280001930497059602F04FFF07B0F0BDC04602
:10523800478F001010B5024B1B689847002010BD1F
:10524800800B0020034B044A1860022391780B431B
:1052580093707047800B00200001002010B50448AF
:1052680003F009FB62B6BFF36F8F0423181C02DF3B
:10527800C8AA0010072310B50449054A99430548F0
:10528800521A03F06CFA002010BDC04637480020BF
:1052980000200420840B00200200802103008A43A0
:1052A80000200F2A08DC5AB20448002A00DA044811
:1052B8002C228B435343C0187047C046940B0020E0
:1052C800540E002070B50400FFF7E6FF036A0500DE
:1052D8001B685B0526D566B201F07CFB012816D950
:1052E800114B64001C40F343DB0F1C430123A34014
:1052F8000E4A0F4913664A6E1A409A42FBD1296A30
:105308000C480A6802400A600B4A136604E02A6ADD
:10531800084913680B401360002E03DA28000C308C
:1053280001F00CFF70BDC046FEFEFFFF00201150CB
:1053380000001150FFFBFFFF00301150F0B585B0A1
:1053480006000F001500FFF7A7FF036A04001B689B
:105358005B050AD500201C4B022202931B4903005F
:1053680003960190009003F0F5FD76B2002E24DA42
:10537800402D25D8002F1AD180231B021D43210060
:105388002831087803005A1E9341012242400A70CE
:10539800226A5B032B431360C046C046C046802286
:1053A8000020216AD20013430B6005B0F0BD2A002B
:1053B8003900606A04F0CEFBDEE70023A360DEE775
:1053C8000C204042F1E7C046D1AA001028A00010E6
:1053D800F0B589B00E22524200240392002600271D
:1053E8008022104D0696079728000F4B0F4904940A
:1053F800029401940094D20002F0AAF80C49280003
:1054080004F0BBFA0B4883681B68A34205D0072148
:105418009847A04204DC09B0F0BD58204042FAE7A2
:105428002000F8E7F804002081540010B81E00207E
:10543800EDAA0010409D001010B50100024C20009C
:1054480001F006FD10BDC046040300201FB500246E
:105458006B461C71062302936B4600221C7301A83D
:105468000023FFF7E9FF024B024A9C541FBDC046C8
:10547800900B00208B050000F0B5802501267642B0
:10548800F71785B06D0011483B0001A9320001F003
:1054980035FD6B461979002910D01C7B2000FFF7D9
:1054A800FBFE0299002902D1094B0A4A9D52436822
:1054B800002BE8D02000C9B29847E4E7044B1B68EA
:1054C800002BE0D00298C0B29847DCE70403002024
:1054D800900B002084050000F0B5BD4B8DB01F680F
:1054E800BC4B1F4206D0BC4BBC4A9B5C002B01D076
:1054F800FFF7ACFF10233C001C401F420BD00025D7
:105508000126B74B9B6D0593059B002B02D0202DE0
:1055180000D01FE1102480235B021F422ED080227E
:105528001C43B04B92021A658020FFF7CBFEAA4DB0
:105538006B6A1B685B050CD50020FFF7C3FE0020D3
:10554800A94B02220293A94903000190009003F09D
:1055580001FD0123A64A2420AB54BB229200AB5480
:10556800002202A909180A702C350A9202AA137798
:105578002B700022002309A8FFF75EFF80239B0100
:105588001F4219D01C4380230021964A02A85B02BF
:105598001365017601749249086D184200D00DE137
:1055A8000420079093480068002800D009E10022F1
:1055B800002306A8FFF740FF3B0511D50121894BC1
:1055C8008C4A19651268002A07D0854A106D802216
:1055D8005202084200D0884BDA6480231B011C4326
:1055E80080267601374228D00025844B0222029378
:1055F80028002B007D490195009503F0ABFC802223
:105608003443B026774B12031A65754BB6001D60FC
:105618007B4B0593059B58192C3501F08FFDB5423E
:10562800F8D1002302AA13760122079202AA137462
:1056380006A800220023FFF7FFFE8023DB011F429C
:1056480011D010221C43674B24211A65002302AA9B
:10565800137705220A9202AA5218137009A8002289
:105668000023FFF7E9FE80231B021F4206D0802299
:105678001C435C4B12011A65FFF7E8FE20252F42F8
:105688000ED000205F4B022202935849030001907C
:10569800009003F05FFC8022524B12061A652C43DF
:1056A80040252F420ED00020574B022202934F492B
:1056B80003000190009003F04DFC8022494B120535
:1056C8001A652C4380252F420ED000204F4B022212
:1056D8000293464903000190009003F03BFC8022AE
:1056E800404BD2041A652C4380256D002F420ED002
:1056F8000020474B022202933C490300019000908E
:1057080003F028FC8022374B92041A652C4380252D
:10571800AD002F420ED000203E4B012202933349A8
:1057280003000190009003F015FC80222D4B5204D9
:105738001A652C43A7420BD00020374B7C400293BC
:1057480001220300294903940190009003F002FC10
:105758000DB0F0BD059B33422DD0224B6C109E65D9
:105768000123E4B21D4216D1002D09D11A4B2B4A50
:10577800995C002904D09D54294A9B5C184A1360FF
:1057880080235B421C43E4B22000FFF785FD0C3008
:1057980001F0D4FC0223242102AA521814702339E0
:1057A80002AA117709A80A9300220023FFF744FEF2
:1057B800059BB343059376000135A5E602230793BD
:1057C800F5E6096DC90700D5F1E6D364EFE6C046F2
:1057D8009800115010000100900B00208B0500006C
:1057E8000000115000301150F5AA001028A0001038
:1057F800840500001C1100200020115022AB00106D
:10580800600E00202CAB001035AB001040AB001030
:105818004CAB00105CAB001066AB001086050000B6
:105828008A050000F0B5424E89B0306800281BD0C8
:10583800002107AA03F068FD041E07DB079B00226E
:105848001979186803F073FD041E0DD00020394B38
:10585800012202933849030003940190009003F059
:1058680079FB200009B0F0BD8023344A5B04136043
:10587800334A344913601D000A689543FBD1324C02
:105888009C222900200004F06EF9802229002F486C
:10589800520104F068F9092363673368002B01D1CA
:1058A8000C33A3670123236480239B05E364284A00
:1058B800284B294E1A600023284D294F05933B1F7A
:1058C80077626B61059B002B2AD03B00803B3362DB
:1058D800043B2B61059B234ADB019A18B262224ADA
:1058E8009B18AB6101222800110003F0D4FF059B2F
:1058F8000837013305932C362C35102BDFD1236D57
:10590800DB0703D58022194B5202DA6400220321F7
:105918000520FFF7DBFB0520FFF7BCFB0024A0E711
:10592800BA21114B0C4A890093625350DAE7C046FA
:105938001C1100207AAB001028A0001000E00040E5
:1059480000F0004008C00040000011500000105056
:10595800F0FB010090001150900B0020600E002019
:1059680084001050400110500001105000201150C8
:10597800014B18607047C046900B00200121034B73
:10598800034A9954034A985400207047900B00200A
:10599800860500008A0500001FB543B20A00002BE7
:1059A8000EDA039000200A4B019002930090030046
:1059B8000122084903F0CEFA1620404205B000BD86
:1059C800402900D940220021FFF7B8FCF6E7C0467D
:1059D80095AB001028A000101FB5027800790028A8
:1059E8000ED153060CD00C4B0C49029303000190C6
:1059F8000090012203F0AEFA0120404205B000BD3C
:105A08000023702118000A42F8D0054A034902927F
:105A180001930093EDE7C046A7AB001028A0001043
:105A2800C6AB001070B50400FFF736FC051E1CD08D
:105A380080231B01620613D164B20D4A002C07DBD8
:105A480002219166026A136001230020EB7070BD89
:105A580001219166026A13600020FFF733FCF3E727
:105A6800026A1360802CEFD1F6E716204042EEE779
:105A78000020115010B50400FFF70EFC00281BD0C1
:105A88000023026A1360020028321370C169994228
:105A980009D0426A0A4B5340827892061343A022E7
:105AA800120613430B60002063B2834203DD4021DA
:105AB8002000FFF771FF10BD16204042FBE7C046EB
:105AC80000001050F0B587B0050014001E000591C5
